:100000000A128A114B2E00308A000408840A8207E3
:100010000034523445344134443459342034543457
:100020004F34203452344534433445344934563403
:100030004534003446344F3452345734413452340A
:1000400044340034573445344C3443344F344D3405
:1000500045340034523445345634453452345334E4
:10006000453400345234493447344834543400342D
:0A0070004C34453446345434003457
:100C960083010A128A11102FF100710883120313BF
:100CA6008800071087100715F930F0006400F00B74
:100CB600592E5D2E64008312031307110800F100FC
:100CC6007108831203138800071487100715F9307B
:100CD600F0006400F00B6C2E702E64008312031378
:100CE6000711080038300A128A114F260A128A1193
:100CF60001300A128A114F260A128A1106300A1288
:100D06008A114F260A128A110C300A128A114F26AE
:100D16000A128A110800F300A02E730884000A1232
:100D26008A1103200A128A110A128A1162260A12ED
:100D36008A110130F2007208F307730884000A1260
:100D46008A1103200A128A110038031DAB2EAC2E1D
:100D5600902E08000030F4000030F500701CB42E10
:100D6600B52EBB2E7208F4070318F50A7308F507AB
:100D760001300310F20DF30DFF3E031DBC2E0130B2
:100D86000310F10CF00CFF3E031DC32E7108700416
:100D9600031DCE2ECF2EB12E7508F101F107740872
:100DA600F001F00708000030F9000030FA00F22EDA
:100DB60083160313011481140115811281113B302E
:100DC600831203138100E72E0B1DEA2EEB2EE72E6E
:100DD6000B110130F9070318FA0A0030FA077708F1
:100DE600F101F1077608F001F0071430F200003047
:100DF600F3000A128A11AD260A128A117A08803A7D
:100E0600F8007108803A7802031D0B2F70087902EA
:100E1600031C0E2F0F2FDB2E0800831603138801E9
:100E260080308700860183120313870188018601BB
:100E36000A128A1175260A128A11243083160313A0
:100E46009800903083120313980083160313181525
:100E56001930990080300A128A114F260A128A1117
:100E66001A300A128A118E260A128A110130F600E9
:100E76000030F7000A128A11D6260A128A110130AA
:100E86000A128A114F260A128A110130F600003022
:100E9600F7000A128A11D6260A128A1180300A121F
:100EA6008A114F260A128A1101300A128A118E26D9
:100EB6000A128A110130F6000030F7000A128A1170
:100EC600D6260A128A1101300A128A114F260A12F0
:100ED6008A11831203131A08313A031D732F742FD4
:100EE600912F061480300A128A114F260A128A118F
:100EF60012300A128A118E260A128A110130F60061
:100F06000030F7000A128A11D6260A128A11013019
:100F16000A128A114F260A128A11FC2F8312031312
:100F26001A08323A031D982F992FB52F80300A12CE
:100F36008A114F260A128A1122300A128A118E2627
:100F46000A128A110130F6000030F7000A128A11DF
:100F5600D6260A128A1101300A128A114F260A125F
:100F66008A11FC2F831203131A08333A031DBC2F70
:100F7600BD2FD92F80300A128A114F260A128A11E4
:100F86002A300A128A118E260A128A110130F600B8
:100F96000030F7000A128A11D6260A128A11013089
:100FA6000A128A114F260A128A11FC2F8312031382
:100FB6001A08343A031DE02FE12FFC2F80300A1265
:100FC6008A114F260A128A1130300A128A118E2689
:100FD6000A128A110130F6000030F7000A128A114F
:100FE600D6260A128A1101300A128A114F260A12CF
:0A0FF6008A116C2F0A128A110028DC
:02400E00723FFF
:00000001FF
