:060000000A128A11BC2F58
:100F780083010A128A11CD2F8316031394131413B5
:100F88008312031314129411941014151414941644
:100F98000800831603138601831203138601383071
:100FA8008316031387000A128A11C0270A128A11AE
:100FB8000A128A11E5270A128A11DC2F0A128A11ED
:100FC8000028831203131308F0007008F100EC2FB7
:100FD8008C1DEF2FF02FEC2F7108613A031DF52FB0
:100FE800F62FF82F0617FF2F7108623A031DFD2F01
:080FF800FE2FFF2F0613080075
:00000001FF
