:060000000A128A114F2FC5
:100E9E0083010A128A11532F83160313880101301E
:100EAE008312031388008316031386013F308312C7
:100EBE00031386000630F2000E30F100B030F00061
:100ECE00F00B672FF10B672FF20B672F0630831293
:100EDE00031386000630F2000E30F100B030F00041
:100EEE00F00B772FF10B772FF20B772F5B308312EE
:100EFE00031386000630F2000E30F100B030F00021
:100F0E00F00B872FF10B872FF20B872F4F308312A9
:100F1E00031386000630F2000E30F100B030F00000
:100F2E00F00B972FF10B972FF20B972F6630831242
:100F3E00031386000630F2000E30F100B030F000E0
:100F4E00F00BA72FF10BA72FF20BA72F6D308312EB
:100F5E00031386000630F2000E30F100B030F000C0
:100F6E00F00BB72FF10BB72FF20BB72F7D3083128B
:100F7E00031386000630F2000E30F100B030F000A0
:100F8E00F00BC72FF10BC72FF20BC72F07308312B1
:100F9E00031386000630F2000E30F100B030F00080
:100FAE00F00BD72FF10BD72FF20BD72F7F308312E9
:100FBE00031386000630F2000E30F100B030F00060
:100FCE00F00BE72FF10BE72FF20BE72F6F308312A9
:100FDE00031386000630F2000E30F100B030F00040
:100FEE00F00BF72FF10BF72FF20BF72F0A128A11D6
:020FFE000028C9
:02400E00723FFF
:00000001FF
