:100000000A128A11242C00308A000408840A82070C
:10001000003431342E3444344D344B3432342E34A5
:10002000413444344D344B3433342E3442344A3426
:100030005034003450346C347334203463346834B6
:100040006F346F34733465342034703461347234F7
:10005000743479340034573445344C3443344F3499
:100060004D344534203454344F34203450344F34DC
:100070004C344C3400345034723465347034613450
:10008000723469346E346734203466346F347234B9
:100090002034003444344D344B34203469347334C8
:1000A0002034773469346E346E34653472342134DC
:1000B000003444344D344B342034203441344434FF
:1000C0004D344B342034203442344A3450340034DC
:1000D0006134673465346E3474342034723465347A
:1000E000733470346F346E34733465340034413497
:1000F00044344D344B3420346934733420347734F1
:1001000069346E346E3465347234003459346F346B
:1001100075347234203476346F34743469346E3408
:100120006734203469347334003442344A345034F0
:100130002034693473342034773469346E346E3447
:10014000653472340034573461346934743469343A
:100150006E346734203466346F34723400342034A3
:100160002034203472346534733475346C34743410
:1001700000347234653463346534693476346534FC
:0E01800064340034413444344D344B34003484
:1008480083010A128A11C22CF10071088312031362
:100858008800071087100715F930F0006400F00BC6
:10086800322C362C64008312031307110800F100A0
:100878007108831203138800071487100715F930CD
:10088800F0006400F00B452C492C6400831203131C
:100898000711080038300A128A1128240A128A110E
:1008A80001300A128A1128240A128A1106300A1203
:1008B8008A1128240A128A110C300A128A11282453
:1008C8000A128A1108007208831203178D00700833
:1008D800013E8C00831603178C130C1555308D00C0
:1008E800AA308D008C14782C831203130D1E7D2CD6
:1008F8007E2C782C831603170C11831203130D1208
:100908000800F6000030F4000030F5007608831285
:1009180003178D00831603178C130C110C14831204
:1009280003170C08F200F3017208F4007308F500CD
:100938007508F101F1077408F001F0070800F300E9
:10094800B52C730884000A128A1103200A128A112E
:100958000A128A113B240A128A110130F200720825
:10096800F307730884000A128A1103200A128A11F5
:100978000038031DC02CC12CA52C08000F3083168D
:1009880003138600880187010A128A114E240A126D
:100998008A118230FB00DD30FA00FA0BD12CFB0BF8
:1009A800D12CD62C752D80300A128A1128240A12CF
:1009B8008A1123300A128A11A3240A128A111030CC
:1009C800FC002A30FB001630FA00FA0BE92CFB0B6E
:1009D800E92CFC0BE92CF02C01300A128A1128248E
:1009E8000A128A1180300A128A1128240A128A11DE
:1009F8009B300A128A11A3240A128A110D30FB00B7
:100A0800FB30FA00FA0B062DFB0B062D0B2DC03020
:100A18000A128A1128240A128A1160300A128A11CD
:100A2800A3240A128A110B30FC001C30FB0063302F
:100A3800FA00FA0B1D2DFB0B1D2DFC0B1D2D640060
:100A4800252D8312031306182A2D2B2D252D0A1266
:100A58008A118F250A128A110630FC000E30FB001D
:100A6800B030FA00FA0B362DFB0B362DFC0B362D69
:100A780001300A128A1128240A128A1180300A12B7
:100A88008A1128240A128A117E300A128A11A32494
:100A98000A128A110D30FB00FB30FA00FA0B522DB6
:100AA800FB0B522D572DC0300A128A1128240A1226
:100AB8008A11B1300A128A11A3240A128A111A3033
:100AC800FC004530FB007E30FA00FA0B692DFB0B69
:100AD800692DFC0B692D01300A128A1128240A128B
:100AE8008A118312031306187A2D7B2D7F2D861CFD
:100AF8007E2D7F2DD72C061C822D832D8C2D861CB8
:100B0800862D872D8C2D0A128A1171260A128A11B8
:100B18000A128A11002801300A128A1128240A129E
:100B28008A1180300A128A1128240A128A11123076
:100B38000A128A11A3240A128A111030F6002A30E8
:100B4800F5001630F400F40BA72DF50BA72DF60BC6
:100B5800A72DAE2D01300A128A1128240A128A11F3
:100B680080300A128A1128240A128A1101300A12C6
:100B78008A11A3240A128A110B30F6001C30F500E2
:100B88006330F400F40BC62DF50BC62DF60BC62DFD
:100B9800640083120313861CD22DD32D032ED42D6B
:100BA8008618D72DD82DD42D0130F0000030F10053
:100BB800F2010314F20D0A128A1167240A128A112B
:100BC80001300A128A1128240A128A1180300A1266
:100BD8008A1128240A128A11BB300A128A11A32406
:100BE8000A128A110630F6000E30F500B030F40013
:100BF800F40BFC2DF50BFC2DF60BFC2D702E83123F
:100C08000313061D082E092E3A2E0A2E06190D2E3C
:100C18000E2E0A2E0130F0000030F1000230F400F0
:100C28007408F2000A128A1167240A128A11013024
:100C38000A128A1128240A128A1180300A128A118B
:100C480028240A128A11BA300A128A11A3240A1215
:100C58008A110630F6000E30F500B030F400F40BBF
:100C6800332EF50B332EF60B332E702E831203130F
:100C7800861D3F2E402E702E412E8619442E452E5D
:100C8800412E0130F0000030F1000330F400740808
:100C9800F2000A128A1167240A128A1101300A1214
:100CA8008A1128240A128A1180300A128A112824EB
:100CB8000A128A115C300A128A11A3240A128A11B4
:100CC8000630F6000E30F500B030F400F40B6A2E52
:100CD800F50B6A2EF60B6A2E0800003083120313F8
:100CE800A0000030A1000030A2000030A3000030B6
:100CF800A4000030A50001300A128A1128240A1223
:100D08008A1180300A128A1128240A128A11333073
:100D18000A128A11A3240A128A110D30F800FB3036
:100D2800F700F70B952EF80B952E9A2EC0300A1265
:100D38008A1128240A128A11A7300A128A11A324B8
:100D48000A128A110630F9000E30F800B030F700A8
:100D5800F70BAC2EF80BAC2EF90BAC2E01300A12A7
:100D68008A1185240A128A11710883120313A101BA
:100D7800A1077008A001A00702300A128A11852471
:100D88000A128A11710883120313A301A3077008BA
:100D9800A201A20703300A128A1185240A128A11B5
:100DA800710883120313A501A5077008A401A407FD
:100DB80001300A128A1128240A128A1180300A1274
:100DC8008A1128240A128A1151300A128A11A3247E
:100DD8000A128A110D30F800FB30F700F70BF22EDB
:100DE800F80BF22EF72EC0300A128A1128240A12A4
:100DF8008A11831203132008303EF70021080318D4
:100E0800013E003EF80077080A128A11A3240A124C
:100E18008A110D30F800FB30F700F70B112FF80B93
:100E2800112F162FC6300A128A1128240A128A1185
:100E3800831203132208303EF70023080318013EEB
:100E4800003EF80077080A128A11A3240A128A11B0
:100E58000D30F800FB30F700F70B302FF80B302F70
:100E6800352FCB300A128A1128240A128A118312CC
:100E780003132408303EF70025080318013E003EFE
:100E8800F80077080A128A11A3240A128A110D3071
:100E9800F800FB30F700F70B4F2FF80B4F2F542FAC
:100EA8000B30F9001C30F8006330F700F70B5A2FAD
:100EB800F80B5A2FF90B5A2F6400831203132308D7
:100EC800803AF7002108803A7702031D6D2F200829
:100ED80022020318702F712F942F831203132508F1
:100EE800803AF7002108803A7702031D7D2F2008F9
:100EF80024020318802F812F942F01300A128A119F
:100F080028240A128A1180300A128A1128240A1207
:100F18008A1142300A128A11A3240A128A11F92F5F
:100F2800831203132108803AF7002308803A7702D6
:100F3800031DA02F220820020318A32FA42FC72FB8
:100F4800831203132508803AF7002308803A7702B2
:100F5800031DB02F220824020318B32FB42FC72F64
:100F680001300A128A1128240A128A1180300A12C2
:100F78008A1128240A128A116F300A128A11A324AE
:100F88000A128A11F92F831203132108803AF700F5
:100F98002508803A7702031DD32F2408200203185E
:100FA800D62FD72FF92F831203132308803AF7007F
:100FB8002508803A7702031DE32F2408220203182C
:100FC800E62FE72FF92F01300A128A1128240A1276
:100FD8008A1180300A128A1128240A128A118D3047
:100FE8000A128A11A3240A128A1101300A128A11DC
:080FF80028240A128A110800E6
:02400E00723FFF
:00000001FF
