:060000000A128A119F2E76
:100D3E0083010A128A11A32E7830831603138600BC
:100D4E008801870183120313880186018701061427
:100D5E0086100611861DB42EB52EC92EB62E8619F6
:100D6E00B92EBA2EB62E803087000330F2008830AE
:100D7E00F1005630F000F00BC22EF10BC22EF20B2A
:100D8E00C22E1C2F83120313061ECE2ECF2EE52E3F
:100D9E00D02E061AD32ED42ED02E803087000730B8
:100DAE0088000330F2008830F1005630F000F00B6E
:100DBE00DE2EF10BDE2EF20BDE2E1C2F8312031312
:100DCE00861EEA2EEB2E012FEC2E861AEF2EF02E1B
:100DDE00EC2E803087003F3088000330F2008830E0
:100DEE00F1005630F000F00BFA2EF10BFA2EF20B4A
:100DFE00FA2E1C2F83120313061F062F072F1C2FEC
:100E0E00082F061B0B2F0C2F082F80308700CC309D
:100E1E0088000330F2008830F1005630F000F00BFD
:100E2E00162FF10B162FF20B162F8312031306102B
:100E3E0086140611861D242F252F3B2F262F86194B
:100E4E00292F2A2F262F803087000130880003306B
:100E5E00F2008830F1005630F000F00B342FF10B19
:100E6E00342FF20B342F8C2F83120313061E402FB8
:100E7E00412F572F422F061A452F462F422F8030D3
:100E8E0087000F3088000330F2008830F1005630B2
:100E9E00F000F00B502FF10B502FF20B502F8C2F28
:100EAE0083120313861E5C2F5D2F732F5E2F861AFF
:100EBE00612F622F5E2F803087007F3088000330D5
:100ECE00F2008830F1005630F000F00B6C2FF10B71
:100EDE006C2FF20B6C2F8C2F83120313061F782F9F
:100EEE00792F8C2F7A2F061B7D2F7E2F7A2F87013D
:100EFE0088010330F2008830F1005630F000F00B1C
:100F0E00862FF10B862FF20B862F831203130610FA
:100F1E0086100615861D942F952FAB2F962F8619AA
:100F2E00992F9A2F962F8030870003308800033038
:100F3E00F2008830F1005630F000F00BA42FF10BC8
:100F4E00A42FF20BA42FFC2F83120313061EB02F17
:100F5E00B12FC72FB22F061AB52FB62FB22F803052
:100F6E0087001F3088000330F2008830F1005630C1
:100F7E00F000F00BC02FF10BC02FF20BC02FFC2F87
:100F8E0083120313861ECC2FCD2FE32FCE2F861A5E
:100F9E00D12FD22FCE2F80308700FF308800033024
:100FAE00F2008830F1005630F000F00BDC2FF10B20
:100FBE00DC2FF20BDC2FFC2F83120313061FE82FFE
:100FCE00E92FFC2FEA2F061BED2FEE2FEA2F99307B
:100FDE0088000330F2008830F1005630F000F00B3C
:100FEE00F62FF10BF62FF20BF62FAE2E0A128A11F8
:020FFE000028C9
:02400E00723FFF
:00000001FF
