:060000000A128A11782F9C
:100EF00083010A128A117C2F8316031387010A12B9
:100F00008A118C270A128A110A128A11C6270A121C
:100F10008A110A128A1100287F308312031392006B
:100F20000C3097000130F0000030F1007108803A79
:100F3000FE0080307E02031D9F2FFF307002031CD5
:100F4000A22FA32FA42FC52FF930831603139200CD
:100F50007008831203139500AD2F8C1CB02FB12F96
:100F6000AD2F8C100130F0070318F10A0030F107A3
:100F70007108803AFE0080307E02031DC12FFF30D1
:100F80007002031CC42FC52FA42F08007F308312CA
:100F9000031392000C309700FF30F0000030F10096
:100FA0007108803AFE0080307E02031DD92F023086
:100FB00070020318DC2FDD2FDE2FFF2FF930831690
:100FC000031392007008831203139500E72F8C1C03
:100FD000EA2FEB2FE72F8C10FF30F0070318F10AF0
:100FE000FF30F1077108803AFE0080307E02031D59
:100FF000FB2F023070020318FE2FFF2FDE2F080098
:02400E00723FFF
:00000001FF
