:060000000A128A118A2F8A
:100F140083010A128A119F2F7F30831203139200D8
:100F2400C330831603139200972F831203138C1C70
:100F34009C2F9D2F972F8C10080083160313880174
:100F44000030F0000030F1007108803AFE0080307B
:100F54007E02031DAF2F02307002031CB22FB32F89
:100F6400B42FD02F01308312031388000A128A1180
:100F74008E270A128A110130F0070318F10A003093
:100F8400F1077108803AFE0080307E02031DCC2FE9
:100F940002307002031CCF2FD02FB42F0030F20088
:100FA4000030F3007308803AFE0080307E02031D97
:100FB400DD2F0A307202031CE02FE12FE22FFD2FF8
:100FC4008312031388010A128A118E270A128A11C6
:100FD4000130F2070318F30A0030F3077308803A6C
:100FE400FE0080307E02031DF92F0A307202031CBA
:0C0FF400FC2FFD2FE22F0A128A110028AA
:02400E00723FFF
:00000001FF
