:060000000A128A119E2F76
:100F3C0083010A128A11A22F8316031388018030B1
:100F4C00870083120313870188012430831603134F
:100F5C00980090308312031398008316031318150E
:100F6C0019309900831203131A08313A031DBF2F4D
:100F7C00C02FCF2F0C3088000630F2000E30F1005D
:100F8C00B030F000F00BC82FF10BC82FF20BC82FAC
:100F9C00FC2F831203131A08323A031DD62FD72FB6
:100FAC00E62F053088000630F2000E30F100B0302C
:100FBC00F000F00BDF2FF10BDF2FF20BDF2FFC2FEC
:100FCC00831203131A08333A031DED2FEE2FFC2F57
:100FDC000A3088000630F2000E30F100B030F0001C
:100FEC00F00BF62FF10BF62FF20BF62FB82F0A128F
:040FFC008A1100282E
:02400E00723FFF
:00000001FF
