:060000000A128A118C2E89
:100D180083010A128A11CF2EF1007108831203137E
:100D28008800071087100715F930F0006400F00BF1
:100D38009A2E9E2E64008312031307110800F100F7
:100D48007108831203138800071487100715F930F8
:100D5800F0006400F00BAD2EB12E64008312031373
:100D68000711080038300A128A1190260A128A11CF
:100D780001300A128A1190260A128A1106300A12C4
:100D88008A1190260A128A110C300A128A119026AA
:100D98000A128A1108008316031387018801860145
:100DA8008312031386010030F4000030F5000A12A4
:100DB8008A11B6260A128A110030F6000030F700B0
:100DC8007708803AFE0080307E02031DED2E0A303F
:100DD8007602031CF02EF12EF22EFD2F0030F800C3
:100DE8000030F9007908803AFE0080307E02031D49
:100DF800FF2E0A307802031C022F032F042FEA2F3C
:100E08000030FA000030FB007B08803AFE0080309A
:100E18007E02031D112F0A307A02031C142F152F8E
:100E2800162FD72F0030FC000030FD007D08803AD7
:100E3800FE0080307E02031D232F0A307C02031C33
:100E4800262F272F282FC42FC0300A128A11902648
:100E58000A128A117608303E0A128A11A3260A124B
:100E68008A110D30F300FB30F200F20B392FF30B2F
:100E7800392F3E2FC1300A128A1190260A128A1180
:100E88007808303E0A128A11A3260A128A110D30F8
:100E9800F300FB30F200F20B4F2FF30B4F2F542FC0
:100EA800C2300A128A1190260A128A117A08303E34
:100EB8000A128A11A3260A128A110D30F300FB3098
:100EC800F200F20B652FF30B652F6A2FC3300A125D
:100ED8008A1190260A128A117C08303E0A128A1159
:100EE800A3260A128A110D30F300FB30F200F20B30
:100EF8007B2FF30B7B2F802F0130F4070318F50AA3
:100F08000030F5077508803AFE0080307E02031D28
:100F18008F2FC8307402031C922F932FAE2F7508A1
:100F2800803AFE0081307E02031D9C2F2D30740212
:100F380003189F2FA02FAE2F0130831203138600B2
:100F48000D30F300FB30F200F20BA82FF30BA82FA3
:100F5800AD2FB12F8312031386010130FC0703184C
:100F6800FD0A0030FD077D08803AFE0080307E02D1
:100F7800031DC02F0A307C02031CC32FC42F282F47
:100F88000130FA070318FB0A0030FB077B08803A98
:100F9800FE0080307E02031DD32F0A307A02031C24
:100FA800D62FD72F162F0130F8070318F90A00306B
:100FB800F9077908803AFE0080307E02031DE62F8B
:100FC8000A307802031CE92FEA2F042F0130F607B4
:100FD8000318F70A0030F7077708803AFE008030D8
:100FE8007E02031DF92F0A307602031CFC2FFD2F09
:080FF800F22E0A128A110028F2
:02400E00723FFF
:00000001FF
