:060000000A128A117D2F97
:100EFA0083010A128A11812F033083160313860095
:100F0A0083120313860106188B2F8C2FA32F8618A2
:100F1A008F2F902FA32F0C3086000330F2008830D9
:100F2A00F1005630F000F00B982FF10B982FF20BCE
:100F3A00982F0030F3000030F400FD2F83120313C2
:100F4A00061CA82FA92FD22F8618AC2FAD2FD22F6F
:100F5A0074087304031DB22FB32FC22F0C308600FE
:100F6A000330F2008830F1005630F000F00BBB2F4E
:100F7A00F10BBB2FF20BBB2FD12F83120313860168
:100F8A000330F2008830F1005630F000F00BCB2F1E
:100F9A00F10BCB2FF20BCB2FFD2F83120313861CE1
:100FAA00D72FD82FEE2F061CDB2FDC2FEE2F860132
:100FBA000330F2008830F1005630F000F00BE32FD6
:100FCA00F10BE32FF20BE32F0130F3000030F400B2
:100FDA00FD2F8312031386010330F2008830F100DB
:100FEA005630F000F00BF72FF10BF72FF20BF72F1B
:060FFA000A128A11002812
:02400E00723FFF
:00000001FF
