:060000000A128A11652FAF
:100ECA0083010A128A11692F831603138601880186
:100EDA000E30831203138600013088001030F200AE
:100EEA002A30F1001630F000F00B792FF10B792F30
:100EFA00F20B792F802F1E3083120313860088018C
:100F0A000630F2000E30F100B030F000F00B8B2FFB
:100F1A00F10B8B2FF20B8B2F0D30831203138600EC
:100F2A00023088001030F2002A30F1001630F0004A
:100F3A00F00B9D2FF10B9D2FF20B9D2FA42F2D301F
:100F4A0083120313860088010630F2000E30F10086
:100F5A00B030F000F00BAF2FF10BAF2FF20BAF2F29
:100F6A000B30831203138600043088001030F2001D
:100F7A002A30F1001630F000F00BC12FF10BC12F0F
:100F8A00F20BC12FC82F4B3083120313860088013E
:100F9A000630F2000E30F100B030F000F00BD32F23
:100FAA00F10BD32FF20BD32F0730831203138600D2
:100FBA00083088001030F2002A30F1001630F000B4
:100FCA00F00BE52FF10BE52FF20BE52FEC2F873015
:100FDA0083120313860088010630F2000E30F100F6
:100FEA00B030F000F00BF72FF10BF72FF20BF72FC1
:060FFA000A128A11002812
:02400E00723FFF
:00000001FF
