:060000000A128A11BF2F55
:100F7E0083010A128A11D62FF00070088312031310
:100F8E009300080083160313941314138312031390
:100F9E0014129411141194101410941608000130A8
:100FAE0083160313880083120313880110308316EF
:100FBE00031387008312031387010A128A11C927AC
:100FCE000A128A1183120313081CEE2FEF2FF62F2D
:100FDE0061300A128A11C3270A128A11FC2F62305D
:100FEE000A128A11C3270A128A11E92F0A128A11CC
:020FFE000028C9
:00000001FF
