:100000000A128A11E12E00308A000408840A82074D
:100010000034503441344C3441344E34493420346B
:100020004D34553452345534473441344E34003411
:100030005434483441344E344B34203459344F34E2
:1000400055342134003430343434323432342034B2
:1000500031343934373437340034573445344C3440
:1000600043344F344D34453400344D3445344434F6
:100070004934433441344C34003443344F344E34E7
:0A0080005434413443345434003446
:100DC20083010A128A11432FF1007108831203135F
:100DD2008800071087100715F930F0006400F00B47
:100DE200EF2EF32E64008312031307110800F100A3
:100DF2007108831203138800071487100715F9304E
:100E0200F0006400F00B022F062F6400831203131C
:100E12000711080038300A128A11E5260A128A11CF
:100E220001300A128A11E5260A128A1106300A12C4
:100E32008A11E5260A128A110C300A128A11E52655
:100E42000A128A110800F300362F730884000A126E
:100E52008A1103200A128A110A128A11F8260A122A
:100E62008A110130F2007208F307730884000A1233
:100E72008A1103200A128A110038031D412F422FC2
:100E8200262F080083160313870188010A128A118C
:100E92000B270A128A1186300A128A11E5260A12D3
:100EA2008A1125300A128A1124270A128A11103057
:100EB200F6002A30F5001630F400F40B5E2FF50B25
:100EC2005E2FF60B5E2F652F01300A128A11E5267E
:100ED2000A128A11F930F4006400F40B6D2F712F9D
:100EE200640081300A128A11E5260A128A11013041
:100EF2000A128A1124270A128A11C5300A128A118B
:100F0200E5260A128A112D300A128A1124270A12A2
:100F12008A111030F6002A30F5001630F400F40B76
:100F2200902FF50B902FF60B902F972F01300A126E
:100F32008A11E5260A128A11F930F4006400F40BD2
:100F42009F2FA32F640085300A128A11E5260A1208
:100F52008A1135300A128A1124270A128A11C530E1
:100F62000A128A11E5260A128A111B300A128A1104
:100F720024270A128A111030F6002A30F5001630A2
:100F8200F400F40BC22FF50BC22FF60BC22FC92FA0
:100F920001300A128A11E5260A128A11F930F40088
:100FA2006400F40BD12FD52F640084300A128A1109
:100FB200E5260A128A1110300A128A1124270A120F
:100FC2008A111030F6002A30F5001630F400F40BC6
:100FD200E82FF50BE82FF60BE82FEF2F01300A125E
:100FE2008A11E5260A128A11F930F4006400F40B22
:0E0FF200F72FFB2F64004C2F0A128A110028E3
:02400E00723FFF
:00000001FF
