:060000000A128A11A22C75
:1009440083010A128A11C02C7208710470040319FD
:10095400AC2CAD2CAF2C8030F20608003D30831255
:10096400031390003508A801A8073408A701A707B6
:100974000A128A111D260A128A110800831603130B
:10098400880101308312031388008830B4001330C7
:10099400B5000A128A11B0240A128A1183120313B1
:1009A40088011030B4002730B5000A128A11B0242F
:1009B4000A128A110A128A1100280030F400003049
:1009C400F500701CE62CE72CED2C7208F4070318D4
:1009D400F50A7308F50701300310F20DF30DFF3E1D
:1009E400031DEE2C01300310F10CF00CFF3E031D2F
:1009F400F52C71087004031D002D012DE32C7508DE
:100A0400F101F1077408F001F00708000310003049
:100A140003180130FD0083120313A51F122D132D9B
:100A24001B2DA409A509A40A0319A50AFD01031491
:100A3400FD0D2408F0002508F100F2018E30FB00C2
:100A44007B08F3007D08FC007C08F4000A128A117C
:100A5400A8250A128A11700883120313A4007108CE
:100A6400A5007208A6000800031000300318013026
:100A740083120313A100F71F402D412D492DF609C0
:100A8400F709F60A0319F70AA1010314A10DF91FC6
:100A94004C2D4D2D562DF809F909F80A0319F90AB8
:100AA4000130FA007A08A1060030A2000030A30049
:100AB4007708760403195F2D602D982DA001031487
:100AC400A00D6F2D01300310F60DF70DFF3E031D31
:100AD400652D0130FA007A08A007F71F722D732DD7
:100AE400642D01300310A20DA30DFF3E031D742DD0
:100AF40077087902031D802D76087802031C832D64
:100B0400842D8B2D7608F8027708031CF903F9026B
:100B1400221401300310F70CF60CFF3E031D8C2D3C
:100B24000130A002031D972D982D732D2108031D5C
:100B34009C2DA12DA209A309A20A0319A30A230823
:100B4400F701F7072208F601F60708007308031DEA
:100B5400AC2DB32D720871047004031DB22DB32D96
:100B6400BA2D0030F0000030F1000030F2001C2EED
:100B7400C72D0130F5007508F30701300310F20C9E
:100B8400F10CF00CFF3E031DC02DFE307205031D59
:100B9400CC2DCD2DBB2DE42D0130F5007508F307C8
:100BA4000130F007003003180130F107003003185A
:100BB4000130F20701300310F20CF10CF00CFF3E8F
:100BC400031DDD2DFF307205031DE92DEA2DCE2D09
:100BD400F52D0130F30201300310F00DF10DF20D8B
:100BE400FF3E031DEE2DF11FF82DF92DEB2D73188B
:100BF400FC2DFD2D032EFF30F0057F30F105FF3075
:100C0400F2050310F30C7308F500F601F701103038
:100C14000310F50DF60DF70DFF3E031D0A2E7508A2
:100C2400F0047608F1047708F2047408031D1B2EFF
:100C34001C2EF2170800831203132808803AFE00C2
:100C440081307E02031D282EF5302702031C2B2E33
:100C54002C2E692EF430F6000130F70083120313B2
:100C64002808F901F9072708F801F8070A128A1178
:100C740036250A128A11770883120313B101B107CA
:100C84007608B001B0070030B2000030B3005A2E2D
:100C94000B308F00DB308E004F2E0C1C522E532E47
:100CA4004F2E0C100130B2070318B30A0030B307FB
:100CB4003308803AA9003108803A2902031D642EC2
:100CC40030083202031C672E682E4A2EC82E0830C4
:100CD400F6000030F700831203132808F101F1072E
:100CE4002708F001F007E830F2000330F3000A129D
:100CF4008A11DF240A128A117108F901F9077008B0
:100D0400F801F8070A128A1136250A128A1177089F
:100D140083120313A501A5077608A401A4070A12E8
:100D24008A1108250A128A11831203132408AD00BC
:100D34002508AE002608AF00FF30F8007F30F90028
:100D44004730FA002D08F0002E08F1002F08F200B9
:100D54000A128A11A6240A128A117008FB0071086B
:100D6400FC007208FD000A128A11C9260A128A11AF
:100D7400780883120313AA007908AB007A08AC0040
:100D8400C32E0C1CC62EC72EC32E0C1008007808C8
:100D940083120313A0007908A1007A08A2000310AB
:100DA400210D220DA3002308A6007B08A0007C08C7
:100DB400A1007D08A2000310210D220DA300230829
:100DC400A5002608031DE72EF72E25082602031882
:100DD400EC2EED2EFE2E2603FF3A2507A000193037
:100DE4002002031CF62EF72EFE2E7B08F8007C084A
:100DF400F9007D08FA00FF2F2508031D022F122F8A
:100E0400260825020318072F082F132F2503FF3A5E
:100E14002607A00019302002031C112F122F132FB4
:100E2400FF2F0630A0002008A400FA1F1A2F1B2F42
:100E34001C2FA417FD1F1F2F202F212F2417F91754
:100E4400FF30F805FF30F9050030FA05FC17FF30D4
:100E5400FB05FF30FC050030FD05250826020318BC
:100E6400342F352F612F01300310FB0DFC0DFD0DC8
:100E7400FF3E031D362F0130A5022508260603195F
:100E8400442F452F4D2F0130A40224080739031D98
:100E94004C2F4D2F352F5A2F01300310FA0CF90C1B
:100EA400F80CFF3E031D4F2F0130A0002008A607B9
:100EB40026082506031D5F2F602F4E2F922F26082C
:100EC40025020318662F672F922F01300310F80DA7
:100ED400F90DFA0DFF3E031D682F0130A602250807
:100EE40026060319762F772F7F2F0130A4022408BA
:100EF4000739031D7E2F7F2F672F8C2F013003109E
:100F0400FD0CFC0CFB0CFF3E031D812F0130A000E7
:100F14002008A50726082506031D912F922F802F50
:100F2400A41F952F962FA62FFF30F806FF30F90641
:100F3400FF30FA060130F807003003180130F907D2
:100F4400003003180130FA07241FA92FAA2FBA2F43
:100F5400FF30FB06FF30FC06FF30FD060130FB07C7
:100F6400003003180130FC07003003180130FD077E
:100F74000310003003180130A4007808FB07790837
:100F840003110318790A0319C82FFC077A080311FF
:100F940003187A0A0319CF2FFD07FD1FD22FD32F71
:100FA400E62FFF30FB06FF30FC06FF30FD06013064
:100FB400FB07003003180130FC0700300318013030
:100FC400FD07A4010314A40D7B08F0007C08F100C4
:100FD4007D08F2002608A0002008F3002408A100E0
:100FE4002108F4000A128A11A8250A128A1170082D
:0C0FF400F8007108F9007208FA0008000B
:02400E00723FFF
:00000001FF
