:060000000A128A11F62B22
:1007EC0083010A128A11192C7208710470040319FE
:1007FC00002C012C032C8030F20608008316031306
:10080C00011481140115811281118312031335080F
:10081C00A801A8073408A701A7070A128A111026F5
:10082C000A128A11080083160313880101308312FF
:10083C00031388001430B4000030B5000A128A117A
:10084C0004240A128A118312031388011430B40091
:10085C000030B5000A128A1104240A128A110A12F5
:10086C008A1100280030F4000030F500701C3F2C79
:10087C00402C462C7208F4070318F50A7308F50788
:10088C0001300310F20DF30DFF3E031D472C013018
:10089C000310F10CF00CFF3E031D4E2C710870047C
:1008AC00031D592C5A2C3C2C7508F101F1077408C6
:1008BC00F001F00708000310003003180130FD00B0
:1008CC0083120313A51F6B2C6C2C742CA409A50983
:1008DC00A40A0319A50AFD010314FD0D2408F00058
:1008EC002508F100F2018E30FB007B08F3007D0837
:1008FC00FC007C08F4000A128A1101250A128A11E4
:10090C00700883120313A4007108A5007208A600D6
:10091C000800031000300318013083120313A100E8
:10092C00F71F992C9A2CA22CF609F709F60A031931
:10093C00F70AA1010314A10DF91FA52CA62CAF2CAD
:10094C00F809F909F80A0319F90A0130FA007A08CA
:10095C00A1060030A2000030A3007708760403192A
:10096C00B82CB92CF12CA0010314A00DC82C01300B
:10097C000310F60DF70DFF3E031DBE2C0130FA00DF
:10098C007A08A007F71FCB2CCC2CBD2C0130031000
:10099C00A20DA30DFF3E031DCD2C77087902031D7C
:1009AC00D92C76087802031CDC2CDD2CE42C760880
:1009BC00F8027708031CF903F90222140130031022
:1009CC00F70CF60CFF3E031DE52C0130A002031DB5
:1009DC00F02CF12CCC2C2108031DF52CFA2CA2099F
:1009EC00A309A20A0319A30A2308F701F70722088F
:1009FC00F601F60708007308031D052D0C2D72086F
:100A0C0071047004031D0B2D0C2D132D0030F00000
:100A1C000030F1000030F200752D202D0130F50072
:100A2C007508F30701300310F20CF10CF00CFF3ECB
:100A3C00031D192DFE307205031D252D262D142D99
:100A4C003D2D0130F5007508F3070130F00700303B
:100A5C0003180130F107003003180130F2070130A0
:100A6C000310F20CF10CF00CFF3E031D362DFF3081
:100A7C007205031D422D432D272D4E2D0130F302FF
:100A8C0001300310F00DF10DF20DFF3E031D472D4B
:100A9C00F11F512D522D442D7318552D562D5C2DB3
:100AAC00FF30F0057F30F105FF30F2050310F30C39
:100ABC007308F500F601F70110300310F50DF60D73
:100ACC00F70DFF3E031D632D7508F0047608F10445
:100ADC007708F2047408031D742D752DF2170800A5
:100AEC007008F4007108F5007208F6000310750D1B
:100AFC00760DF7007708FD00FD08031D862D872D68
:100B0C00902D0030F3000030F2000030F100003086
:100B1C00F0000F2E7008F4007108F5007208F60052
:100B2C0017300310F60CF50CF40CFF3E031D972D3B
:100B3C007408F7007708F800F117FF30F005FF3064
:100B4C00F1050030F2057008F9007108FA0072081E
:100B5C00FB00FC018E30FD02FD1FB52DB62DD82DEE
:100B6C007D08803A8F3E0318BC2DBD2DC62D00305C
:100B7C00F3000030F2000030F1000030F0000F2ED6
:100B8C0001300310FC0CFB0CFA0CF90CFF3E031D9E
:100B9C00C72D0130F4007408FD07031DD62DD72D89
:100BAC00C62DF82D18307D02031CDD2DDE2DE72D12
:100BBC000030F3000030F2000030F1000030F000A3
:100BCC000F2EF32D0130F4000310F90DFA0DFB0D6F
:100BDC00FC0DF40BEA2D0130FD02FD08031DF72D71
:100BEC00F82DE82D7808031DFC2D072EF909FA09BC
:100BFC00FB09FC09F90A0319FA0A0319FB0A031980
:100C0C00FC0A7C08F3007B08F2007A08F1007908F2
:100C1C00F0000800831203132808803AFE0080308D
:100C2C007E02031D1B2E33302702031C1E2E1F2E8B
:100C3C005A2E3230F6000030F700831203132808C6
:100C4C00F901F9072708F801F8070A128A118F240D
:100C5C000A128A11770883120313B101B1077608BF
:100C6C00B001B0070030B2000030B3004B2E3B3067
:100C7C008100402E0B1D432E442E402E0B110130B3
:100C8C00B2070318B30A0030B3073308803AA9003F
:100C9C003108803A2902031D552E30083202031CFC
:100CAC00582E592E3D2EC82E0030F6000130F7007C
:100CBC00831203132808F101F1072708F001F0074C
:100CCC00E830F2000330F3000A128A1138240A12B9
:100CDC008A117108F901F9077008F801F8070A126E
:100CEC008A118F240A128A11770883120313A50123
:100CFC00A5077608A401A4070A128A1161240A1216
:100D0C008A11831203132408AA002508AB002608B5
:100D1C00AC000030F8007F30F9004330FA002A08AC
:100D2C00F0002B08F1002C08F2000A128A11FA23A9
:100D3C000A128A117008FB007108FC007208FD0091
:100D4C000A128A11C9260A128A117808831203130F
:100D5C00AD007908AE007A08AF002D08F0002E081F
:100D6C00F1002F08F2000A128A1176250A128A1154
:100D7C007008831203138100C32E0B1DC62EC72EC1
:100D8C00C32E0B110800780883120313A0007908F6
:100D9C00A1007A08A2000310210D220DA300230844
:100DAC00A6007B08A0007C08A1007D08A20003100F
:100DBC00210D220DA3002308A5002608031DE72EF4
:100DCC00F72E250826020318EC2EED2EFE2E2603F8
:100DDC00FF3A2507A00019302002031CF62EF72E2F
:100DEC00FE2E7B08F8007C08F9007D08FA00FF2F26
:100DFC002508031D022F122F260825020318072F82
:100E0C00082F132F2503FF3A2607A00019302002C4
:100E1C00031C112F122F132FFF2F0630A0002008B8
:100E2C00A400FA1F1A2F1B2F1C2FA417FD1F1F2FF6
:100E3C00202F212F2417F917FF30F805FF30F90563
:100E4C000030FA05FC17FF30FB05FF30FC050030C5
:100E5C00FD05250826020318342F352F612F01308C
:100E6C000310FB0DFC0DFD0DFF3E031D362F013055
:100E7C00A502250826060319442F452F4D2F0130B6
:100E8C00A40224080739031D4C2F4D2F352F5A2F40
:100E9C0001300310FA0CF90CF80CFF3E031D4F2F18
:100EAC000130A0002008A60726082506031D5F2F89
:100EBC00602F4E2F922F260825020318662F672FBE
:100ECC00922F01300310F80DF90DFA0DFF3E031DA2
:100EDC00682F0130A602250826060319762F772FD6
:100EEC007F2F0130A40224080739031D7E2F7F2F8A
:100EFC00672F8C2F01300310FD0CFC0CFB0CFF3EFC
:100F0C00031D812F0130A0002008A5072608250607
:100F1C00031D912F922F802FA41F952F962FA62F54
:100F2C00FF30F806FF30F906FF30FA060130F807FB
:100F3C00003003180130F907003003180130FA07AC
:100F4C00241FA92FAA2FBA2FFF30FB06FF30FC0657
:100F5C00FF30FD060130FB07003003180130FC07A1
:100F6C00003003180130FD07031000300318013066
:100F7C00A4007808FB07790803110318790A0319F0
:100F8C00C82FFC077A08031103187A0A0319CF2F0C
:100F9C00FD07FD1FD22FD32FE62FFF30FB06FF30AE
:100FAC00FC06FF30FD060130FB0700300318013052
:100FBC00FC07003003180130FD07A4010314A40D35
:100FCC007B08F0007C08F1007D08F2002608A000E8
:100FDC002008F3002408A1002108F4000A128A1149
:100FEC0001250A128A117008F8007108F9007208BC
:040FFC00FA000800EF
:02400E00723FFF
:00000001FF
