:100000000A128A11DD2E00308A000408840A820751
:1000100000344D344F3454344F34523420344F3440
:100020004634463400344D344F3454344F34523413
:0800300020344F344E3400343B
:100DBA0083010A128A113F2FF1007108831203136B
:100DCA008800071087100715F930F0006400F00B4F
:100DDA00EB2EEF2E64008312031307110800F100B3
:100DEA007108831203138800071487100715F93056
:100DFA00F0006400F00BFE2E022F6400831203132E
:100E0A000711080038300A128A11E1260A128A11DB
:100E1A0001300A128A11E1260A128A1106300A12D0
:100E2A008A11E1260A128A110C300A128A11E12665
:100E3A000A128A110800F300322F730884000A127A
:100E4A008A1103200A128A110A128A11F4260A1236
:100E5A008A110130F2007208F307730884000A123B
:100E6A008A1103200A128A110038031D3D2F3E2FD2
:100E7A00222F0800033083160313860083120313FC
:100E8A00860183160313880187010A128A1107272C
:100E9A000A128A11831203130618542F552F7C2F16
:100EAA008618582F592F7C2F01300A128A11E126F1
:100EBA000A128A1180300A128A11E1260A128A114C
:100ECA000B300A128A1120270A128A110630F600FC
:100EDA000E30F500B030F400F40B712FF50B712FC2
:100EEA00F60B712F0030F7000030F800FC2F831248
:100EFA000313061C812F822FCA2F8618852F862F4F
:100F0A00CA2F78087704031D8B2F8C2FAB2F013043
:100F1A000A128A11E1260A128A1180300A128A11EB
:100F2A00E1260A128A110B300A128A1120270A12A4
:100F3A008A110630F6000E30F500B030F400F40BDA
:100F4A00A42FF50BA42FF60BA42FC92F01300A12D8
:100F5A008A11E1260A128A1180300A128A11E126C0
:100F6A000A128A1101300A128A1120270A128A11DA
:100F7A000630F6000E30F500B030F400F40BC32F43
:100F8A00F50BC32FF60BC32FFC2F83120313861CFA
:100F9A00CF2FD02FFC2F061CD32FD42FFC2F01309C
:100FAA000A128A11E1260A128A1180300A128A115B
:100FBA00E1260A128A1101300A128A1120270A121E
:100FCA008A118312031306150630F6000E30F50057
:100FDA00B030F400F40BEF2FF50BEF2FF60BEF2FD9
:100FEA000130F7000030F8008312031306114F2F67
:060FFA000A128A11002812
:02400E00723FFF
:00000001FF
