:100000000A128A11482B00308A000408840A8207E9
:0E0010000034543445344D3450342D34003413
:1006900083010A128A11B42E4D2BFF30F007031884
:1006A000F10AFF30F107FF307106031D592BFF30AF
:1006B0007006031D5C2B5D2B4D2B0800F2007208A9
:1006C000831203138800071087100715C830F00045
:1006D0000030F1000A128A114C230A128A11831287
:1006E000031307110800F200720883120313880035
:1006F000071487100715C830F0000030F1000A1207
:100700008A114C230A128A1183120313071108005D
:1007100001300A128A115E230A128A110C300A1261
:100720008A115E230A128A1138300A128A115E2356
:100730000A128A1106300A128A115E230A128A11DD
:100740000800F400B32B740884000A128A110320F5
:100750000A128A110A128A1173230A128A110130AD
:10076000F3007308F407740884000A128A11032046
:100770000A128A110038031DBE2BBF2BA32B0800C1
:10078000031000300318013083120313AD00AB1FB8
:10079000CA2BCB2BD32BAA09AB09AA0A0319AB0A84
:1007A000AD010314AD0D2A08F0002B08F100F20191
:1007B0008E30FC007C08F3002D08FD007D08F4005D
:1007C0000A128A11BE240A128A11700883120313B6
:1007D000AA007108AB007208AC00080003100030DA
:1007E00003180130F600F31FF62BF72BFF2BF2094D
:1007F000F309F20A0319F30AF6010314F60DF11FC7
:10080000022C032C082CF009F109F00A0319F10A53
:100810007108700403190D2C0E2C3E2CF5010314E5
:10082000F50D1D2C01300310F00DF10DFF3E031DE1
:10083000132C0130F4007408F507F11F202C212C33
:10084000122C71087302031D272C70087202031CFE
:100850002A2C2B2C312C7008F2027108031CF30394
:10086000F30201300310F10CF00CFF3E031D322C9B
:100870000130F502031D3D2C3E2C212C7608031D72
:10088000422C472CF209F309F20A0319F30A730800
:10089000F101F1077208F001F007080003100030C1
:1008A00003180130F600F11F562C572C5F2CF0096D
:1008B000F109F00A0319F10AF6010314F60DF31F0A
:1008C000622C632C6C2CF209F309F20A0319F30A67
:1008D0000130F4007408F6060030F7000030F8002C
:1008E000710870040319752C762CAE2CF5010314D5
:1008F000F50D852C01300310F00DF10DFF3E031DA9
:100900007B2C0130F4007408F507F11F882C892C2A
:100910007A2C01300310F70DF80DFF3E031D8A2CD1
:1009200071087302031D962C70087202031C992C27
:100930009A2CA12C7008F2027108031CF303F30235
:10094000771401300310F10CF00CFF3E031DA22CB4
:100950000130F502031DAD2CAE2C892C7608031D49
:10096000B22CB72CF709F809F70A0319F80A780826
:10097000F101F1077708F001F00708007308031D83
:10098000C22CC92C720871047004031DC82CC92C18
:10099000D02C0030F0000030F1000030F200322D99
:1009A000DD2C0130F5007508F30701300310F20C5F
:1009B000F10CF00CFF3E031DD62CFE307205031D1A
:1009C000E22CE32CD12CFA2C0130F5007508F3074A
:1009D0000130F007003003180130F1070030031830
:1009E0000130F20701300310F20CF10CF00CFF3E65
:1009F000031DF32CFF307205031DFF2C002DE42C8A
:100A00000B2D0130F30201300310F00DF10DF20D4A
:100A1000FF3E031D042DF11F0E2D0F2D012D731808
:100A2000122D132D192DFF30F0057F30F105FF3009
:100A3000F2050310F30C7308F500F601F70110300E
:100A40000310F50DF60DF70DFF3E031D202D750863
:100A5000F0047608F1047708F2047408031D312DC0
:100A6000322DF2170800780883120313A0007908CA
:100A7000A1007A08A2000310210D220DA300230873
:100A8000A900A908031D452D462D4F2D0030FB0060
:100A90000030FA000030F9000030F800CE2D780860
:100AA000A0007908A1007A08A20017300310A20C58
:100AB000A10CA00CFF3E031D562D2008A300230807
:100AC000A400F917FF30F805FF30F9050030FA05EA
:100AD0007808A5007908A6007A08A700A8018E303A
:100AE000A902A91F742D752D972D2908803A8F3ED4
:100AF00003187B2D7C2D852D0030FB000030FA0083
:100B00000030F9000030F800CE2D01300310A80CA1
:100B1000A70CA60CA50CFF3E031D862D0130A000DE
:100B20002008A907031D952D962D852DB72D18306A
:100B30002902031C9C2D9D2DA62D0030FB000030AA
:100B4000FA000030F9000030F800CE2DB22D01304F
:100B5000A0000310A50DA60DA70DA80DA00BA92D93
:100B60000130A902A908031DB62DB72DA72D240811
:100B7000031DBB2DC62DA509A609A709A809A50A0D
:100B80000319A60A0319A70A0319A80A2808FB00D3
:100B90002708FA002608F9002508F8000800831243
:100BA00003132E08B4002F08B5003008B600031058
:100BB000350D360DB7003708B800B808031DE12D14
:100BC000E22DE92D0030AE000030AF000030B00063
:100BD000B32E3108B4003208B5003308B600031054
:100BE000350D360DB7003708BD00BD08031DF92DC2
:100BF000FA2D012E0030AE000030AF000030B00002
:100C0000B32E3D087B3EB4003408B8072E08B4006C
:100C10002F08B5003008B60010300310B60CB50C24
:100C2000B40CFF3E031D0D2E3408B7003708BD007D
:100C30003108B4003208B5003308B6001030031094
:100C4000B60CB50CB40CFF3E031D1F2E3408B700C4
:100C50003708BD068030B4003408BD05AF17B217A1
:100C6000FF30B105FF30B2050030B3050030B900E8
:100C70000030BA000030BB000730B4003408BC00BC
:100C80002E1C432E442E542E3108B907320803116E
:100C90000318320A03194D2EBA073308031103183B
:100CA000330A0319542EBB0701300310B00CAF0CEC
:100CB000AE0CFF3E031D552E01300310B10DB20DD9
:100CC000B30DFF3E031D5D2E0130BC02031D692ED6
:100CD0006A2E402E0930B4003408BC002E1C712E40
:100CE000722E822E3108B907320803110318320A16
:100CF00003197B2EBA07330803110318330A0319AB
:100D0000822EBB0701300310B00CAF0CAE0CFF3EBF
:100D1000031D832E01300310BB0CBA0CB90CFF3E2F
:100D2000031D8B2E0130BC02031D972E982E6E2EB4
:100D30003908F0003A08F1003B08F2003808B40026
:100D40003408F3003D08B5003508F4000A128A1192
:100D5000BE240A128A11700883120313AE007108B0
:100D6000AF007208B00008000130831203139F0027
:100D7000CE30831603139F008601013083120313C4
:100D800086008316031388018312031388018316D8
:100D9000031387018312031387010A128A11882320
:100DA0000A128A11831203139F111F129F1205301A
:100DB0009F001E08BE00BF010830FE000310BE0DDC
:100DC000BF0DFE0BDE2E3E08C6003F08C70083168F
:100DD00003131E08831203134607C60047080318AF
:100DE000470AC7004708AB01AB074608AA01AA0794
:100DF0000A128A11C0230A128A11831203132A08C5
:100E0000B1002B08B2002C08B3009A30AE00993024
:100E1000AF004030B0000A128A11CF250A128A11A1
:100E2000831203132E08F8002F08F9003008FA0087
:100E30000A128A1133250A128A11790883120313C0
:100E4000C501C5077808C401C4070A30F0000030A6
:100E5000F1004508F301F3074408F201F2070A1212
:100E60008A114E240A128A11710883120313CD01CC
:100E7000CD077008CC01CC07E830F0000330F1005A
:100E80004D08F301F3074C08F201F2070A128A1128
:100E90004E240A128A11710883120313C101C1077B
:100EA0007008C001C007E830F0000330F1004D08C1
:100EB000F301F3074C08F201F2070A128A11EE233C
:100EC0000A128A11710883120313C901C907700835
:100ED000C801C8076430F0000030F1004908F30190
:100EE000F3074808F201F2070A128A114E240A1287
:100EF0008A11710883120313C901C9077008C80158
:100F0000C8076430F0000030F1004D08F301F3072A
:100F10004C08F201F2070A128A11EE230A128A1112
:100F2000710883120313CB01CB077008CA01CA07EB
:100F30000A30F0000030F1004B08F301F3074A08D3
:100F4000F201F2070A128A114E240A128A1171085C
:100F500083120313CB01CB077008CA01CA070A30FA
:100F6000F0000030F1004D08F301F3074C08F201E6
:100F7000F2070A128A11EE230A128A1171088312EB
:100F80000313C301C3077008C201C207C0300A12AD
:100F90008A115E230A128A1101300A128A11A123D2
:100FA0000A128A11C6300A128A115E230A128A11A5
:100FB000831203134008303E0A128A1173230A1267
:100FC0008A11831203134808303E0A128A117323D0
:100FD0000A128A11831203134A08303E0A128A1138
:100FE00073230A128A11831203134208303E0A1235
:100FF0008A1173230A128A11D22E0A128A1100282A
:02400E00723FFF
:00000001FF
