:060000000A128A11C52E50
:100D8A0083010A128A11082FF100710883120313D2
:100D9A008800071087100715F930F0006400F00B7F
:100DAA00D32ED72E64008312031307110800F10013
:100DBA007108831203138800071487100715F93086
:100DCA00F0006400F00BE62EEA2E6400831203138F
:100DDA000711080038300A128A11C9260A128A1124
:100DEA0001300A128A11C9260A128A1106300A1219
:100DFA008A11C9260A128A110C300A128A11C926C6
:100E0A000A128A11080083160313870188010A123D
:100E1A008A11EF260A128A110030F4000030F50018
:100E2A007508803AFE0080307E02031D1E2F0A30AC
:100E3A007402031C212F222F232FFD2F0030F600CE
:100E4A000030F7007708803AFE0080307E02031DEA
:100E5A00302F0A307602031C332F342F352FEA2F16
:100E6A000030F8000030F9007908803AFE0080303E
:100E7A007E02031D422F0A307802031C452F462F9B
:100E8A00472FD72F0030FA000030FB007B08803A4A
:100E9A00FE0080307E02031D542F0A307A02031CA2
:100EAA00572F582F592FC42FC0300A128A11C9261A
:100EBA000A128A117408303E0A128A11DC260A12B2
:100ECA008A110D30F300FB30F200F20B6A2FF30B9C
:100EDA006A2F6F2FC1300A128A11C9260A128A1183
:100EEA007608303E0A128A11DC260A128A110D305F
:100EFA00F300FB30F200F20B802FF30B802F852FCB
:100F0A00C2300A128A11C9260A128A117808303E9A
:100F1A000A128A11DC260A128A110D30F300FB30FC
:100F2A00F200F20B962FF30B962F9B2FC3300A1267
:100F3A008A11C9260A128A117A08303E0A128A11BF
:100F4A00DC260A128A110D30F300FB30F200F20B94
:100F5A00AC2FF30BAC2FB12F0130FA070318FB0AA1
:100F6A000030FB077B08803AFE0080307E02031DBA
:100F7A00C02F0A307A02031CC32FC42F592F013005
:100F8A00F8070318F90A0030F9077908803AFE00D1
:100F9A0080307E02031DD32F0A307802031CD62F1D
:100FAA00D72F472F0130F6070318F70A0030F70743
:100FBA007708803AFE0080307E02031DE62F0A3051
:100FCA007602031CE92FEA2F352F0130F4070318A4
:100FDA00F50A0030F5077508803AFE0080307E0277
:100FEA00031DF92F0A307402031CFC2FFD2F232F37
:060FFA000A128A11002812
:02400E00723FFF
:00000001FF
