:060000000A128A11B42E61
:100D46007E088A007F088200A3260A128A11800084
:100D5600840A04087D0603190034FF0A0319FE0AF3
:100D6600A72E83135830FD000630FE00C630FF0064
:100D7600443084000A128A11A7260A128A118301B6
:100D86000A128A11DA2E3F340034063400345B34FA
:100D960000344F340034663400346D3400347D340E
:100DA6000034073400347F3400346F340034831643
:100DB600031386018801203084004430F0000408C3
:100DC600F1001430F2007008840083130008F30069
:100DD600F00A7108840073088000F10AF20BE62E0F
:100DE600003083120313BC000030BD003D08803A7A
:100DF600FE0080307E02031D022F0A303C02031CD7
:100E0600052F062F072FFD2F831203133D08B5016B
:100E1600B5073C08B401B4070030BE000030BF007F
:100E26003F08803AFE0080307E02031D1C2F0A30E8
:100E36003E02031C1F2F202F212FE82F831203139E
:100E46003F08B701B7073E08B601B6070030C00035
:100E56000030C1004108803AFE0080307E02031D4A
:100E6600362F0A304002031C392F3A2F3B2FD32F3F
:100E7600831203134108B901B9074008B801B8073E
:100E86000030C2000030C3004308803AFE008030C4
:100E96007E02031D502F0A304202031C532F542F8B
:100EA600552FBE2F831203134308BB01BB0742080D
:100EB600BA01BA07073088003A08F0007007203EEA
:100EC6008400831300088600F930F0006400F00BFC
:100ED600692F6D2F64000B308312031388003808C6
:100EE600F0007007203E8400831300088600F93066
:100EF600F0006400F00B7C2F802F64000D3083120D
:100F0600031388003608F0007007203E8400831320
:100F160000088600F930F0006400F00B8F2F932F45
:100F260064000E308312031388003408F000700743
:100F3600203E84008313000886004130F100EE3025
:100F4600F000F00BA42FF10BA42F640001308312E4
:100F56000313C2070318C30A0030C3074308803AC5
:100F6600FE0080307E02031DBA2F0A304202031CA7
:100F7600BD2FBE2F552F013083120313C007031850
:100F8600C10A0030C1074108803AFE0080307E0267
:100F9600031DCF2F0A304002031CD22FD32F3B2F25
:100FA600013083120313BE070318BF0A0030BF07C0
:100FB6003F08803AFE0080307E02031DE42F0A308F
:100FC6003E02031CE72FE82F212F01308312031363
:100FD600BC070318BD0A0030BD073D08803AFE0075
:100FE60080307E02031DF92F0A303C02031CFC2FC1
:0A0FF600FD2F072F0A128A110028B0
:02400E00723FFF
:00000001FF
