:100000000A128A11982D00308A000408840A820797
:10001000003445346E3474346534723420345034D2
:1000200061347334733477346F347234643400342D
:1000300049344E34563441344C3449344434003419
:100AFE0031343234333434343034303430343034BE
:100B0E007E088A007F08820087250A128A118000DB
:100B1E00840A04087D0603190034FF0A0319FE0A2D
:100B2E008B2DB20183133230FD000530FE007F3075
:100B3E00FF002A3084000A128A118B250A128A11AC
:100B4E0083010A128A11FB2EF2007208831203131C
:100B5E0086000710871007158230F100DD30F00097
:100B6E00F00BB72DF10BB72DBC2D8312031307110C
:100B7E000800F20072088312031386000714871010
:100B8E0007158230F100DD30F000F00BCC2DF10BAB
:100B9E00CC2DD12D831203130711080038300A1201
:100BAE008A11AB250A128A1101300A128A11AB255D
:100BBE000A128A1106300A128A11AB250A128A11FC
:100BCE000C300A128A11AB250A128A110800F400A1
:100BDE00002E740884000A128A1103200A128A1148
:100BEE000A128A11C0250A128A110130F300730805
:100BFE00F407740884000A128A1103200A128A115B
:100C0E000038031D0B2E0C2EF02D0800831203133B
:100C1E00081488100811881D152E162E232E172E37
:100C2E0088191A2E1B2E172E2A300A128A11C02549
:100C3E000A128A113130FA2E83120313081E282E3F
:100C4E00292E362E2A2E081A2D2E2E2E2A2E2A30F8
:100C5E000A128A11C0250A128A113430FA2E831212
:100C6E000313881E3B2E3C2E492E3D2E881A402EF5
:100C7E00412E3D2E2A300A128A11C0250A128A11DF
:100C8E003730FA2E83120313081F4E2E4F2E5C2E72
:100C9E00502E081B532E542E502E2A300A128A1113
:100CAE00C0250A128A112A30FA2E83120313081055
:100CBE0088140811881D642E652E722E662E8819D2
:100CCE00692E6A2E662E2A300A128A11C0250A1241
:100CDE008A113230FA2E83120313081E772E782EC5
:100CEE00852E792E081A7C2E7D2E792E2A300A1208
:100CFE008A11C0250A128A113530FA2E8312031377
:100D0E00881E8A2E8B2E982E8C2E881A8F2E902E21
:100D1E008C2E2A300A128A11C0250A128A113830F6
:100D2E00FA2E83120313081F9D2E9E2EAB2E9F2E7E
:100D3E00081BA22EA32E9F2E2A300A128A11C0251E
:100D4E000A128A113030FA2E8312031308108810FB
:100D5E000815881DB32EB42EC12EB52E8819B82EA7
:100D6E00B92EB52E2A300A128A11C0250A128A11FE
:100D7E003330FA2E83120313081EC62EC72ED42E1E
:100D8E00C82E081ACB2ECC2EC82E2A300A128A1143
:100D9E00C0250A128A113630FA2E83120313881ECA
:100DAE00D92EDA2EE72EDB2E881ADE2EDF2EDB2E44
:100DBE002A300A128A11C0250A128A113930FA2EE7
:100DCE0083120313081FEC2EED2EFA2EEE2E081BA7
:100DDE00F12EF22EEE2E2A300A128A11C0250A1298
:100DEE008A112330FA2E0800831603138601870119
:100DFE0007308800831203138601870188012D08AE
:100E0E00A3002C08A2002B08A1002A08A00031087C
:100E1E00A7003008A6002F08A5002E08A400003059
:100E2E00A8000030A9000A128A11D5250A128A11CB
:100E3E0080300A128A11AB250A128A1101300A1269
:100E4E008A11EE250A128A110D30F600FB30F500DC
:100E5E00F50B2F2FF60B2F2F342F01300A128A117C
:100E6E00AB250A128A11882F462F0A128A110D26D7
:100E7E000A128A11F500750883120313B2003208A4
:100E8E00031D4A2F3C2F0D30F600FB30F500F50BFD
:100E9E004E2FF60B4E2F532F831203133208F500ED
:100EAE002808243E84007508831380000130A807AB
:100EBE000318A90A0030A9070A128A110D260A1270
:100ECE008A11F500750883120313B2000D30F60077
:100EDE00FB30F500F50B712FF60B712F762F822F4D
:100EEE000A128A110D260A128A11F500750883124C
:100EFE000313B200882F3208233A0319872F882F45
:100F0E00772F2908803AFE0080307E02031D912F34
:100F1E0006302802031C942F952F3B2F0310003010
:100F2E000318013083120313B2000D30F600FB30AC
:100F3E00F500F50BA02FF60BA02FA52F8312031390
:100F4E0020082406031DAC2FAD2FDE2F2108250609
:100F5E00031DB22FB32FDE2F22082606031DB82F36
:100F6E00B92FDE2F23082706031DBE2FBF2FDE2F1E
:100F7E0080300A128A11AB250A128A1112300A1217
:100F8E008A11EE250A128A110630F7000E30F6008D
:100F9E00B030F500F50BD12FF60BD12FF70BD12F6B
:100FAE0001300A128A11AB250A128A11FC2F8030E9
:100FBE000A128A11AB250A128A1110300A128A11EE
:100FCE00EE250A128A110630F7000E30F600B03008
:100FDE00F500F50BF02FF60BF02FF70BF02F01307D
:100FEE000A128A11AB250A128A111F2F0A128A11B0
:020FFE000028C9
:02400E00723FFF
:00000001FF
